:020000040800F2
:10000000000002200DA50008A10A0008A30A0008AC
:10001000A50A0008A70A0008A90A000800000000B5
:1000200000000000000000000000000041A20008E5
:10003000AB0A000800000000E1A20008C79D00080C
:1000400061A5000861A5000861A5000861A5000878
:1000500061A5000861A5000861A5000861A5000868
:1000600061A5000861A5000861A50008AD0A0008A7
:10007000BD0A0008CD0A0008DD0A0008ED0A0008E4
:10008000FD0A00080D0B000861A5000861A5000825
:1000900061A5000861A5000861A5000861A5000828
:1000A00061A5000861A5000861A5000861A5000818
:1000B00061A5000861A5000861A500081D0B0008E6
:1000C0002D0B000861A5000861A500083D0B000884
:1000D00061A5000861A5000861A500084D0B000896
:1000E00061A5000861A500080000000061A50008E6
:1000F00061A5000861A5000861A500085D0B000866
:1001000061A5000861A5000861A5000861A50008B7
:100110006D0B000861A500087D0B000861A50008B3
:100120008D0B000861A5000861A5000861A5000805
:1001300061A5000861A5000861A5000861A5000887
:1001400000000000000000000000000000000000AF
:1001500061A5000861A5000861A500089D0B0008C5
:1001600061A5000861A5000861A5000861A5000857
:1001700061A5000861A5000861A500080000000055
:1001800061A5000861A5000861A5000861A5000837
:1001900061A5000861A5000861A5000861A5000827
:1001A00061A5000861A5000861A500080000000025
:1001B00061A5000861A5000861A5000861A5000807
:1001C00061A5000861A50008000000000000000013
:1001D000000000000000000061A500080000000011
:1001E000000000000000000000000000000000000F
:1001F000000000000000000061A5000861A50008E3
:1002000061A5000861A500080000000061A50008C4
:1002100061A5000861A5000861A5000861A50008A6
:1002200061A500080000000061A5000800000000B2
:1002300061A5000861A500080000000061A5000894
:1002400061A5000861A5000861A5000861A5000876
:1002500061A5000861A5000861A5000861A5000866
:1002600061A5000861A5000861A5000861A5000856
:1002700061A5000861A5000861A500080000000054
:1002800061A5000861A5000861A5000861A5000836
:100290000000000061A5000861A500080000000042
:1002A0000000000061A5000861A5000861A5000824
:1002B00061A5000861A5000861A5000861A5000806
:0C02C00061A5000861A5000861A5000808
:1002D00053B94AB9002908BF00281CBF4FF0FF31AD
:1002E0004FF0FF3000F00CB8ADF1080C6DE904CE12
:1002F0000AF072F9DDF804E0DDE9022304B070478A
:10030000704700BF0348044B834202D0034B03B144
:10031000184770471400002014000020000000005F
:100320000548064B1B1AD90F01EBA301491002D057
:10033000034B03B11847704714000020140000203D
:100340000000000010B5064C237843B9FFF7DAFF30
:10035000044B13B10448AFF300800123237010BD98
:100360001400002000000000D0A8000808B5054BCC
:100370001BB105490548AFF30080BDE80840FFF711
:10038000CFBF00BF0000000018000020D0A8000868
:1003900030B585B00024009401940294039406F0D3
:1003A00099F901238DF800308DF8014001941F2246
:1003B0008DF8082087228DF809208DF80A408DF8E5
:1003C0000B408DF80C308DF80D308DF80E408DF807
:1003D0000F40684606F09CF9042006F089F905B044
:1003E00030BD000070B58AB005AD002405940694B8
:1003F000079408940994274BD3F8E02042F00102B7
:10040000C3F8E020D3F8E02002F001020092009A45
:10041000D3F8E02042F02002C3F8E020D3F8E02037
:1004200002F020020192019AD3F8E02042F010027B
:10043000C3F8E020D3F8E02002F010020292029A02
:10044000D3F8E02042F00202C3F8E020D3F8E02025
:1004500002F002020392039AD3F8E02042F0040271
:10046000C3F8E020D3F8E03003F004030493049BC6
:10047000094E22461021304604F020FF1023059338
:1004800001230693079408942946304604F00CFE95
:100490000AB070BD004402580000025800B583B095
:1004A000314BD3F8D82042F00102C3F8D820D3F85A
:1004B000D82002F001020092009AD3F8D82042F02E
:1004C0000202C3F8D820D3F8D83003F00203019316
:1004D000019B002205210B2006F0E8F80B2006F016
:1004E000F5F8002205210C2006F0E0F80C2006F0BB
:1004F000EDF8002205210D2006F0D8F80D2006F0B9
:10050000E5F8002205210E2006F0D0F80E2006F0B6
:10051000DDF8002205210F2006F0C8F80F2006F0B4
:10052000D5F800220521102006F0C0F8102006F0B2
:10053000CDF800220521112006F0B8F8112006F0B0
:10054000C5F8002205212F2006F0B0F82F2006F074
:10055000BDF800220521382006F0A8F8382006F062
:10056000B5F803B05DF804FB0044025808B501205B
:1005700009F0BEFCFBE7000008B50268034B9A4295
:1005800000D008BD06F01EF9FBE700BF00100040D8
:1005900072B6FEE708B51548154B03604FF48003AB
:1005A0004360002383600722C2604FF00072026143
:1005B0004FF0807242614FF0806282614FF0804262
:1005C000C261036243628362C36242638363C36343
:1005D000036443648364C36403654365836506F011
:1005E00029FF00B908BDFFF7D3FF00BF7C0500203D
:1005F0000030014008B51648164B03604FF4E13354
:10060000436000238360C36003610C224261836105
:10061000C36103624362836207F0B3FF78B90021CC
:100620000B4808F02EF860B94FF08061084808F0D8
:100630004DF840B9064808F000F830B908BDFFF79A
:10064000A7FFFFF7A5FFFFF7A3FFFFF7A1FF00BF7D
:10065000A80200200048004008B51148114B036073
:10066000114B4360002383600122C2600361436138
:100670008361C361036206F093FC50B9002108480E
:1006800006F05FFD38B90021054806F087FD20B966
:1006900008BDFFF77DFFFFF77BFFFFF779FF00BF86
:1006A0000407002000540040B634900008B51648F6
:1006B000164B03604FF4E133436000238360C36053
:1006C00003610C2242618361C361036243628362FE
:1006D00007F057FF78B900210B4807F0D2FF60B947
:1006E0004FF08061084807F0F1FF40B9064807F075
:1006F000A4FF30B908BDFFF74BFFFFF749FFFFF735
:1007000047FFFFF745FF00BF14020020001401401F
:1007100008B50848084B0360002303714371436127
:1007200083610123036206F065FD00B908BDFFF790
:100730002FFF00BF88070020004C025810B59CB066
:100740000024189419941A941B94159416941794D1
:100750000E940F94109411941294139414943422C0
:10076000214601A809F0FDFE3A483B4B0360446076
:1007700084604FF6FF73C36004614461846101F0DB
:1007800013FB002853D14FF48053189318A9314814
:1007900001F026FA00284CD12E4801F03FFB00283A
:1007A00049D1002315931693179315A9294801F0F1
:1007B0006FFB002841D160230E9300220F9210920C
:1007C00011921292139214920EA9224801F05EF92E
:1007D000002834D104220EA91E4801F057F9002840
:1007E0002FD108220EA91B4801F050F958BB0C224A
:1007F0000EA9184801F04AF938BB0023019302936F
:100800000393049305934FF40052069207930993C0
:100810004FF000720A920B930D9301A90D4801F05D
:100820008FFBA0B90B4800F0C9FB1CB010BDFFF74F
:10083000AFFEFFF7ADFEFFF7ABFEFFF7A9FEFFF738
:10084000A7FEFFF7A5FEFFF7A3FEFFF7A1FEFFF748
:100850009FFE00BFD00300200000014008B51648ED
:10086000164B03604FF4E133436000238360C360A1
:1008700003610C2242618361C3610362436283624C
:1008800007F07FFE80B94FF080410B4807F0F9FE7A
:1008900060B94FF08061084807F018FF40B906487A
:1008A00007F0CBFE30B908BDFFF772FEFFF770FE10
:1008B000FFF76EFEFFF76CFE3C030020004C00408B
:1008C00010B58CB0002409940A940B94242221467C
:1008D000684609F046FE2048204B03604460082229
:1008E0008260046104234361047601234376C3617B
:1008F00080F820408462C4620463C463046480F8A6
:10090000443082646022C2640465436501F0A2FF42
:10091000D8B90023099309A90F4802F03BF9B0B9EF
:100920000F4B0093062301930023029340F2FF72C2
:1009300003920422049205938DF8213069460648FB
:1009400001F004FC28B90CB010BDFFF721FEFFF741
:100950001FFEFFF71DFE00BF2408002000200240FC
:100960000400600808B50748074B03600423436090
:100970004FF47A73C360836006F0B8FC00B908BD19
:10098000FFF706FE040600200048005800B59DB0A1
:100990004C22002109A809F0E4FD2022002101A831
:1009A00009F0DFFD022005F005FE00230093224B35
:1009B0009A6942F440429A619B6903F44043009370
:1009C000009B1D4B9B6913F4005FFAD00A23099327
:1009D00001230C9340220D920E93022212920023C7
:1009E0001393042114913221159116920821179125
:1009F00018920C2219921A931B9309A802F072F90B
:100A0000B0B93F23019303230293002303930823E8
:100A100004934023059306934FF480620792089352
:100A2000022101A802F04CFD20B91DB05DF804FBC5
:100A3000FFF7AEFDFFF7ACFD0048025808B5FFF721
:100A4000A7FC05F091FEFFF7A1FFFFF7CBFCFFF736
:100A500025FDFFF79FFDFFF7CDFDFFF7FDFDFFF73C
:100A600025FEFFF755FEFFF769FEFFF7F7FEFFF7DC
:100A700027FFFFF777FF09F0B3F9054A0021054882
:100A800009F0DCF9044B186009F0BCF9FEE700BF7F
:100A90000CA900086D050008300000207047704761
:100AA000FEE7FEE7FEE7FEE7FEE7704708B502480F
:100AB00005F0E2F908BD00BF0405002008B50248B2
:100AC00005F0DAF908BD00BF8C04002008B5024823
:100AD00005F0D2F908BD00BF8C06002008B5024819
:100AE00005F0CAF908BD00BF1406002008B5024889
:100AF00005F0C2F908BD00BFAC00002008B50248EF
:100B000005F0BAF908BD00BF3400002008B502485E
:100B100005F0B2F908BD00BF9C01002008B50248ED
:100B200006F0D2FA08BD00BF0407002008B502484D
:100B300006F0D2FA08BD00BF0407002008B502483D
:100B400006F052FD08BD00BF7C05002008B5024834
:100B500006F0B4FE08BD00BFA802002008B5024898
:100B600005F08AF908BD00BF2401002008B502483D
:100B700006F0A4FE08BD00BF3C03002008B50248F3
:100B800000F0DEFD08BD00BFC008002008B5024827
:100B900005F072F908BD00BFAC07002008B5024897
:100BA00006F08CFE08BD00BF1402002000B583B023
:100BB0000A4BD3F8F42042F00202C3F8F420D3F831
:100BC000F43003F002030193019B00220F216FF028
:100BD000010005F06BFD03B05DF804FB0044025812
:100BE00070B5B6B004460021319132913391349101
:100BF0003591B82202A809F0B4FC2268304B9A4221
:100C000001D036B070BD4FF400220023CDE902239D
:100C100020230493812305930223069307930893CB
:100C20004023099302A802F00DFF002842D1254B72
:100C3000D3F8D82042F02002C3F8D820D3F8D82027
:100C400002F020020092009AD3F8E02042F0200245
:100C5000C3F8E020D3F8E03003F020030193019BB8
:100C60004FF400663196032332930025339531A962
:100C7000154804F019FA1548154B03600923436021
:100C80008560C5604FF48063036146614FF4005393
:100C900083614FF48073C3610562042343620123BF
:100CA0008362C562056304F045FC30B9074BA36558
:100CB0009C63A6E7FFF76CFCB9E7FFF769FCF5E773
:100CC000002002400044025800140258AC070020E3
:100CD0001004024002680A4B9A4200D0704782B06A
:100CE000A3F50063D3F8E02042F40022C3F8E0202B
:100CF000D3F8E03003F400230193019B02B0704766
:100D0000004C02582DE9F041B6B004460021319163
:100D10003291339134913591B82202A809F021FC27
:100D20002268424B9A4202D036B0BDE8F0810822D8
:100D30000023CDE9022302A802F084FE00286BD133
:100D40003B4ED6F8E03043F00203C6F8E030D6F868
:100D5000E03003F002030093009BC0233193122381
:100D6000329300253395012734974FF00408CDF8CE
:100D7000D48031A92F4804F097F9D6F8E83043F42D
:100D80000013C6F8E830D6F8E83003F400130193F6
:100D9000019B2948294B0360212343608560C5607E
:100DA0004FF480630361456185614FF48073C361D3
:100DB0000562C0F824808762C562056304F0BAFB4F
:100DC00068BB1D4BE3639C631D481E4B03602223DD
:100DD0004360402383600023C3604FF4806202615C
:100DE00043618361C3610362436204F0A3FBC8B93A
:100DF000134BA3639C63002205211F2005F056FCC2
:100E00001F2005F063FC00220521202005F04EFC88
:100E1000202005F05BFC87E7FFF7BAFB90E7FFF7C0
:100E2000B7FBCEE7FFF7B4FBE2E700BF005400409A
:100E300000440258000402588C0600204000024082
:100E4000140600205800024030B5B7B00446002117
:100E500031913291339134913591B82202A809F041
:100E600080FB2268414B9A4201D037B030BD4FF42D
:100E700080520023CDE9022302A802F0E3FD0028FE
:100E80006BD13B4BD3F8F02042F48052C3F8F020F2
:100E9000D3F8F02002F480520092009AD3F8E020B8
:100EA00042F00102C3F8E020D3F8E03003F0010380
:100EB0000193019BE0233193022332930025339564
:100EC00034930523359331A92A4804F0EDF82A48D4
:100ED0002A4B0360252343608560C5604FF480631F
:100EE0000361456185614FF48073C3614FF48033C2
:100EF00003620423436201238362C562056304F035
:100F000019FB00282CD11C4BE3679C631C481D4B2C
:100F1000036026234360402383600023C3604FF4B3
:100F200080620261436183614FF48072C261036237
:100F30000422426201228262C362036304F0FAFA6D
:100F400088B90F4BA3679C6300220521232005F07D
:100F5000ADFB232005F0BAFB87E7FFF719FB90E70D
:100F6000FFF716FBCFE7FFF713FBEAE7003001407E
:100F700000440258000002580405002010000240FE
:100F80008C0400202800024002680A4B9A4200D0DC
:100F9000704782B0084BD3F8F02042F00102C3F84A
:100FA000F020D3F8F03003F001030193019B02B06D
:100FB000704700BF000001400044025800B587B0F0
:100FC00000230193029303930493059302680F4B4C
:100FD0009A4202D007B05DF804FB0D4BD3F8E02035
:100FE00042F01002C3F8E020D3F8E03003F0100321
:100FF0000093009B4FF4D4430193022302930123F7
:10100000059301A9034804F04FF8E3E7000001400D
:10101000004402580010025870B5BAB004460021CE
:1010200035913691379138913991B82206A809F057
:1010300098FA2368A14A934209D0A14A934200F04A
:101040008380A04A934200F0BA803AB070BD022279
:101050000023CDE9062306A802F0F4FC00286AD19B
:10106000994BD3F8E82042F40022C3F8E820D3F8E3
:10107000E82002F400220092009AD3F8E02042F027
:101080000102C3F8E020D3F8E03003F0010301933C
:10109000019B03233593022336930025379538951A
:1010A0000823399335A9894803F0FEFF8848894B06
:1010B00003603F2343608560C5604FF48063036134
:1010C000456185614FF48073C3614FF480330362DF
:1010D000042343628562C562056304F02BFA00288D
:1010E0002CD17B4BC4F880309C637B487B4B0360E6
:1010F0004023436083600023C3604FF48062026139
:10110000436183614FF48072C261036204224262D0
:1011100001228262C362036304F00CFA88B96E4B49
:10112000E3679C6300220521342005F0BFFA3420D8
:1011300005F0CCFA89E7FFF72BFA91E7FFF728FAD9
:10114000CFE7FFF725FAEAE702220023CDE90623DD
:1011500006A802F077FC78BB5B4BD3F8E82042F49A
:101160008022C3F8E820D3F8E82002F4802202921B
:10117000029AD3F8E02042F00202C3F8E020D3F84C
:10118000E03003F002030393039B4FF44063359375
:10119000022336930024379438940723399335A9D2
:1011A0004F4803F081FF22460521272005F07EFAF3
:1011B000272005F08BFA48E7FFF7EAF9CCE7012290
:1011C0000023CDE9062306A802F03CFC00286CD1E0
:1011D0003D4BD3F8F02042F02002C3F8F020D3F8C2
:1011E000F02002F020020492049AD3F8E02042F0AA
:1011F0000402C3F8E020D3F8E03003F004030593C1
:10120000059BC0233593022336930025379501268D
:1012100038960723399335A9324803F045FF324801
:10122000324B0360472343608560C5604FF48063A1
:101230000361456185614FF48073C3614FF480336E
:101240000362042343628662C562056304F072F997
:1012500000282DD1244BC4F880309C632448254BB2
:10126000036048234360402383600023C3604FF43E
:1012700080620261436183614FF48072C2610362E4
:101280000422426201228262C362036304F052F9C3
:1012900088B9174BE3679C6300220521472005F0BE
:1012A00005FA472005F012FACFE6FFF771F98FE74C
:1012B000FFF76EF9CEE7FFF76BF9EAE7004C004065
:1012C0000048004000140140004402580000025849
:1012D0009C010020A000024024010020B800024030
:1012E0000004025800080258AC00002070000240C0
:1012F00034000020880002400F2801D901207047E7
:1013000010B58AB0044600220146362005F0CEF919
:10131000362005F0DBF91A4B1C601A4BD3F8E82095
:1013200042F01002C3F8E820D3F8E83003F01003CD
:101330000093009B01A902A802F052FA079BBBB9D7
:1013400002F02AFA0346104AA2FB03239B0C013B3E
:101350000E480F4A026040F2E732C2604360002349
:101360000361836000F020FD30B101200AB010BDA0
:1013700002F012FA4300E6E7044800F091F9F5E7BD
:10138000040000200044025883DE1B43C0080020F4
:1013900000100040704770477047704770477047B3
:1013A0007047704770477047F0B4026A036A23F0D1
:1013B00001030362466884691E4B23400D681D4388
:1013C00022F002028B6813431B4A1C4CA04218BF38
:1013D00090420CBF012200220CD004F58044A042B0
:1013E00014BF00240124164FB84203D014B9154C81
:1013F000A04205D123F00803CC68234323F0040363
:101400005AB9114A904214BF002201220C4CA0424A
:1014100003D012B90B4A904205D126F440764A69AE
:1014200032438E691643466085614A6842630362AF
:10143000F0BC70478CFFFEFF00000140000401403B
:1014400000400140004801400044014070B4036A7C
:10145000026A22F4807202624568C4691A4A224014
:101460000E68164323F400738A6843EA0223174A7E
:10147000174CA04218BF90420CBF0122002206D197
:1014800023F40063CC6843EA042323F480635AB94D
:10149000104A904214BF002201220F4CA04203D0F8
:1014A00012B90E4A904207D125F440524C6942EAE3
:1014B00004128C6942EA04154560C6614A68C26339
:1014C000036270BC704700BF8CFFFEFF000001404C
:1014D0000004014000440140004001400048014038
:1014E00070B4036A026A22F4805202624468C569D9
:1014F000144A2A400D6842EA052223F400538D68FD
:1015000043EA0533104E114DA84218BFB0420DD02A
:1015100005F58045A84214BF0025012506F5804643
:10152000B04203D015B90A4DA84204D124F4804436
:101530004D6944EA85144460C2614A6802640362EA
:1015400070BC7047FF8CFFFE0000014000040140AA
:101550000048014070B4036A026A22F480320262D9
:101560004268456D144E2E400D682E4323F400331F
:101570008C6843EA0443114D114CA04218BFA842A5
:101580000DD004F58044A04214BF0024012405F5C9
:101590008045A84203D014B90A4CA04204D122F4D9
:1015A00080324C6942EA0422426046654A6882659C
:1015B000036270BC704700BF8FFFFEFF0000014058
:1015C000000401400048014070B4036A026A22F43A
:1015D000801202624468456D144A2A400D6842EA4E
:1015E000052223F400138D6843EA0553104E114D74
:1015F000A84218BFB0420DD005F58045A84214BFDF
:101600000025012506F58046B04203D015B90A4DE4
:10161000A84204D124F480244D6944EA852444601E
:1016200042654A68C265036270BC7047FF8FFFFE67
:1016300000000140000401400048014010B4036A6A
:10164000046A24F001040462846924F0F00C4CEA7A
:10165000021223F00A030B43826103625DF8044B1C
:10166000704710B4036A046A24F0100404628469A9
:1016700024F4704C4CEA023223F0A00343EA011335
:10168000826103625DF8044B704700008268034B7F
:1016900013400B4343F00703836070478FFFCFFF76
:1016A00090F83D30012B42D1022380F83D30026892
:1016B000D36843F00103D36003681F4AB3F1804F3E
:1016C00018BF934225D0A2F57C42934221D002F567
:1016D000806293421DD002F58062934219D002F5D8
:1016E0007842934215D0A2F56C42934211D002F594
:1016F000943293420DD0A2F5C042934209D002F534
:101700008062934205D01A6842F001021A600020FC
:1017100070479968094A0A40062A18BFB2F5803F07
:1017200007D01A6842F001021A60002070470120B9
:1017300070470020704700BF000001400700010013
:1017400070B504460368DE681D6915F0020F12D0FB
:1017500016F0020F0FD06FF002021A610123037717
:1017600003689B6913F0030F00F09280D0F8943067
:1017700098470023237715F0040F14D016F0040FB8
:1017800011D023686FF004021A61022323772368C3
:101790009B6913F4407F00F08380D4F89430204696
:1017A00098470023237715F0080F13D016F0080F81
:1017B00010D023686FF008021A610423237723688E
:1017C000DB6913F0030F74D0D4F8943020469847A7
:1017D0000023237715F0100F13D016F0100F10D040
:1017E00023686FF010021A61082323772368DB69EE
:1017F00013F4407F66D0D4F89430204698470023F5
:10180000237715F0010F0AD016F0010F07D02368D7
:101810006FF001021A61D4F884302046984715F41D
:10182000025F0AD016F0800F07D023686FF40252CF
:101830001A61D4F8B4302046984715F4807F0AD056
:1018400016F0800F07D023686FF480721A61D4F805
:10185000B8302046984715F0400F0AD016F0400FD8
:1018600007D023686FF040021A61D4F88C3020460C
:10187000984715F0200F0AD016F0200F07D02368E4
:101880006FF020021A61D4F8AC302046984770BD42
:10189000D0F89C309847D4F8A0302046984768E7A5
:1018A000D4F89C3020469847D4F8A030204698477A
:1018B00077E7D4F89C3020469847D4F8A0302046EB
:1018C000984785E7D4F89C3020469847D4F8A03054
:1018D0002046984793E7000070B403683E4A904260
:1018E00014BF00220122B0F1804F14BF144642F011
:1018F0000104ACB9394DA84214BF00250125384E6A
:10190000B0420DD065B905F1804505F58235A84294
:1019100014BF0025012506F50066B04200D01DB1B8
:1019200023F070034D682B4364BB2C4CA04214BFC2
:10193000002401242A4DA84224D01CBB04F1804479
:1019400004F58234A04214BF0024012405F500658B
:10195000A84217D0B4B9234CA04214BF00240124DC
:1019600005F59A35A8420DD064B91F4CA04214BFAA
:101970000024012405F50065A84203D014B91B4CCE
:10198000A04203D123F44073CC68234323F08003A7
:101990004C6923438C68C4620C688462144CA04276
:1019A00008BF42F0010262B90E4A904214BF002201
:1019B000012204F57054A04203D012B90D4A90429E
:1019C00001D10A690263026842F004020260012246
:1019D0004261036070BC7047000001400008004095
:1019E000000400400044014000E0004000E40040EA
:1019F000000401400048014070B4036A026A22F00A
:101A000010020262456884691A4E26400C6846EA54
:101A1000042623F020038A6843EA0213164A174C6F
:101A2000A04218BF90420CBF0122002206D123F031
:101A30008003CC6843EA041323F040035AB9104AE8
:101A4000904214BF002201220E4CA04203D012B9D2
:101A50000D4A904207D125F4406C4A694CEA820C49
:101A60008A694CEA8205456086614A68826303623E
:101A700070BC7047FF8CFFFE000001400004014075
:101A800000440140004001400048014038B590F852
:101A90003C30012B00F0958004460D46012380F870
:101AA0003C30142A00F28880DFE802F00B8686863C
:101AB0001F86868634868686488686865D868686E6
:101AC00071000068FFF770FC2268936943F0080317
:101AD00093612268936923F00403936122689369F8
:101AE00029690B439361002067E00068FFF784FFDA
:101AF0002268936943F4006393612268936923F435
:101B00008063936122689369296943EA01239361A1
:101B1000002052E00068FFF799FC2268D36943F087
:101B20000803D3612268D36923F00403D3612268D8
:101B3000D36929690B43D36100203EE00068FFF7B9
:101B4000CFFC2268D36943F40063D3612268D36970
:101B500023F48063D3612268D369296943EA0123AE
:101B6000D361002029E00068FFF7F4FC2268536D80
:101B700043F0080353652268536D23F00403536553
:101B80002268536D29690B435365002015E00068F6
:101B9000FFF71AFD2268536D43F400635365226812
:101BA000536D23F4806353652268536D296943EABA
:101BB00001235365002000E00120002384F83C301D
:101BC00038BD0220FCE710B4846824F47F4C42EA5C
:101BD00003220A4342EA0C0282605DF8044B70471C
:101BE00090F83C30012B00F08F8010B504460123A3
:101BF00080F83C30022380F83D3002689068434B07
:101C0000034093600B68702B55D031D8502B6CD0AB
:101C10001FD8402B0AD1CA6849682068FFF70EFD1B
:101C200040212068FFF732FD002029E068D8202BF2
:101C300003D00AD80BB1102B05D119462068FFF745
:101C400025FD00201CE001201AE0302BF5D00120FA
:101C500016E0602B0AD1CA6849682068FFF701FDC9
:101C600060212068FFF712FD002009E0012007E055
:101C7000B3F5005F2CD00AD8B3F5805F42D10020C5
:101C8000012384F83D30002384F83C3010BD204A05
:101C90009342D2D007D8B3F5801FCED0B3F1101F36
:101CA000CBD00120ECE71B4A9342C6D010329342BE
:101CB000C3D00120E4E7CB684A6889682068FFF751
:101CC00082FF2268936843F0770393600020D7E790
:101CD000CB684A6889682068FFF775FF22689368B7
:101CE00043F4804393600020CAE7CA6849682068CB
:101CF000FFF7A4FC50212068FFF7C8FC0020BFE7D5
:101D00000120BDE70120BBE7022070478800CEFF1D
:101D10002000100030001000154BC0F88430154B27
:101D2000C0F88830144BC0F88C30144BC0F8903099
:101D3000134BC0F89430134BC0F89830124BC0F8D6
:101D40009C30124BC0F8A030114BC0F8A430114B9E
:101D5000C0F8A830104BC0F8AC30104BC0F8B03011
:101D60000F4BC0F8B4300F4BC0F8B830704700BF0D
:101D70007905000897130008A3130008A5130008AD
:101D80009B1300089D130008991300089F13000877
:101D9000A1130008A7130008E11F0008E31F0008B3
:101DA000E51F0008E71F0008A0B310B5044690F82F
:101DB0003D3013B3022384F83D30214651F8040B23
:101DC000FFF78AFD012384F8483084F83E3084F818
:101DD0003F3084F8403084F8413084F8423084F851
:101DE000433084F8443084F8453084F8463084F831
:101DF000473084F83D30002010BD80F83C30FFF7BC
:101E00008BFFE36C1BB1E36C20469847D2E7024B93
:101E1000E364F8E701207047890F0008A0B310B50C
:101E2000044690F83D3013B3022384F83D30214638
:101E300051F8040BFFF750FD012384F8483084F873
:101E40003E3084F83F3084F8403084F8413084F8E4
:101E5000423084F8433084F8443084F8453084F8C4
:101E6000463084F8473084F83D30002010BD80F8BB
:101E70003C30FFF751FF636E1BB1636E20469847FD
:101E8000D2E7024B6366F8E701207047951300081C
:101E900090F83C20012A4DD070B40346012280F80E
:101EA0003C20022280F83D20026850689468224E4F
:101EB000224DAA4218BFB24203D120F470004D68EF
:101EC000284320F070000D68284350601A681A48B3
:101ED000B2F1804F18BF82421FD0A0F57C408242F1
:101EE0001BD000F58060824217D000F580608242EE
:101EF00013D000F5784082420FD0A0F56C408242AA
:101F00000BD000F59430824207D0A0F5C040824249
:101F100003D000F58060824204D124F080048968F7
:101F200021439160012283F83D20002083F83C008A
:101F300070BC70470220704700000140000401405F
:101F400090F83C30012B44D030B40246012380F895
:101F50003C30CB6823F440738868034323F48063E8
:101F60004868034323F400630868034323F4805361
:101F70000869034323F400534869034323F480436F
:101F8000086B034323F47023886943EA004323F07A
:101F90008053C869034310680F4D104CA04218BF0E
:101FA000A84210D123F470038C6A43EA045323F04F
:101FB00080730C6A234323F000734C6A234323F09D
:101FC0000053C96A0B434364002082F83C0030BCD4
:101FD00070470220704700BF00000140000401402C
:101FE000704770477047704710B400F1600C0D4C9B
:101FF000A0420CD05CF8210000F0004002F0F84252
:10200000134303434CF821305DF8044B70475CF8F0
:10201000210002F0F842134343F000434CF8213012
:10202000F2E700BF0060025800F1600C094B9842D3
:1020300007D05CF8213023F000431A434CF82120EC
:1020400070475CF8213023F0004313434CF82130F3
:10205000704700BF0060025810B430300B0A9B007C
:1020600003F00C03C45801F01F014FF01F0C0CFAD1
:1020700001FC24EA0C0CC2F384628A404CEA02029E
:10208000C2505DF8044B704710B414304B0E9B00E7
:1020900003F00403C458C1F304514FF0070C0CFAC9
:1020A00001FC24EA0C0C8A404CEA0202C2505DF8A2
:1020B000044B7047134B984211D0D0F8C030C1F395
:1020C000130C23EA0C0C02F018020F4BD3401940FA
:1020D000C1F313014CEA0101C0F8C0107047D0F8F9
:1020E000B030C1F3130C23EA0C0C02F01802064BBB
:1020F000D3400B40C3F313034CEA0303C0F8B030E2
:10210000704700BF00600258FFFF0F007047704724
:10211000704770470C4B984209D0C1F313033BB989
:10212000C1F3846101228A40C3691343C3617047CC
:1021300091FAA1F131B1B1FA81F101F01F0101224F
:102140008A40F1E72021F8E70060025870B582B0BC
:102150000023019390F85C30012B00F0E0820446EC
:102160000D46012380F85C3003689A6812F0040F72
:1021700009D0036E43F0200303660120002384F896
:102180005C3002B070BD0A68002A0CDBA5498B42A6
:1021900009D0C2F3130159BBC2F3846201219140FB
:1021A000DA690A43DA612A6869682068FFF754FF30
:1021B0002068866816F0040600D00126836813F0B4
:1021C000080F00D106B32068866816F0010640F0BB
:1021D000A282EA682968FFF76DFFEA68924B9A428B
:1021E00000F035812B68002BC0F2E3810020C5E7A9
:1021F00092FAA2F232B1B2FA82F202F01F02012187
:102200009140CDE72022F8E7AA682968FFF73CFF54
:102210002068844B984211D0844B1B6803F07043B4
:10222000B3F1805F3DD0C36813F0100F40D16B69EC
:10223000C268C2F382025200934005E06B69C26833
:10224000C2F3C102520093402969042938D1754B69
:1022500098427FD0036E03F0F8432A68B3EB826F95
:1022600000F0E6802268536E03F0F8432968B3EB70
:10227000816F00F0E2802268936E03F0F8432968D2
:10228000B3EB816F00F0DE802268D36E03F0F84379
:102290002968B3EB816F96D1D36E23F00043D366E8
:1022A00091E76B69C268C2F3820252009340CBE7A8
:1022B0006B69C268920802F0040252009340C3E7BF
:1022C0002A68FFF791FE2368564A93421CD028697A
:1022D00095F82120012A37D03246603353F8201078
:1022E00021F000410A4343F82020206829692B7E11
:1022F000012B2CD0026922F4F04201F01F0306FAF0
:1023000003F3134303615EE72869EA69603353F816
:10231000201021F080710A4343F8202023682969A6
:1023200095F82020012A0CD03E4A93427FF44BAF0F
:10233000603353F8212022F00072324343F8212009
:1023400041E74FF00076EFE74FF00042C5E74FF46A
:102350000066CFE7036E026EC2F384622B68C3F39C
:10236000130181BBC3F384639A4234D02068436E67
:10237000426EC2F384622B68C3F3130181BBC3F3C3
:1023800084639A4234D02068836E826EC2F3846282
:102390002B68C3F3130181BBC3F384639A4234D027
:1023A0002068C36EC26EC2F384622B68C3F313014C
:1023B00081BBC3F384639A427FF405AF00220321FB
:1023C000FFF732FEFFE693FAA3F313B1B3FA83F3F8
:1023D000CAE72023C8E700221146FFF725FEC5E71C
:1023E00093FAA3F313B1B3FA83F3CAE72023C8E740
:1023F00000220121FFF718FEC5E793FAA3F313B1FA
:10240000B3FA83F3CAE72023C8E700220221FFF7CB
:102410000BFEC5E793FAA3F313B1B3FA83F3CAE74C
:102420002023C8E7006002580000FF470010005C4E
:10243000036E23F00043036614E7536E23F000435A
:10244000536618E7936E23F0004393661CE72068F9
:10245000904B984209D0904B98422FD08F4B984286
:1024600052D03146FFF756FEBCE62B688C4A9342A9
:102470006DD08C4A93426CD08B4A93426BD08B4A7E
:1024800093426AD002F186621032934267D0884A42
:10249000934266D002F1042202F54012934262D0C8
:1024A00002F1866202F5006293425ED0814A934255
:1024B0005DD0814A9342D4D1804ED2E72B68784ACE
:1024C000934256D0774A934255D0774A934254D09C
:1024D000764A934253D002F186621032934250D032
:1024E000734A93424FD002F1042202F54012934204
:1024F0004BD002F1866202F50062934247D06E4AE9
:102500009342AED16D4EACE72B68654A934240D002
:10251000644A93423FD0644A93423ED0634A934216
:102520003DD002F18662103293423AD0604A934223
:1025300039D002F1042202F54012934235D0604AAC
:10254000934234D05F4A93428BD15F4E89E7012694
:1025500087E75E4E85E75E4E83E75E4E81E75E4E1F
:102560007FE75E4E7DE75E4E7BE7554E79E75D4E39
:1025700077E7012675E7554E73E7554E71E7554EDF
:102580006FE7554E6DE7554E6BE7554E69E74C4E7C
:1025900067E7012665E74D4E63E74D4E61E74D4E17
:1025A0005FE74D4E5DE74D4E5BE74D4E59E7454EBB
:1025B00057E7226837493848824218BF8A420CBF21
:1025C0000121002118D1484EB56805F0E07CA9B181
:1025D0003049886810F0010000D001202E49896838
:1025E00011F0010100D0012101430CD0236E43F012
:1025F000200323660120C1E53C4EE5E727498968B1
:1026000011F0010FF2D13A498B4207D039498B4280
:1026100026D039498B4234D00020AFE515F4000FA5
:10262000F4D11E4B9A4201D00020A7E54CF40003E0
:10263000B26822F0E0721343B360304B1B689B0911
:102640002F4AA2FB03239B0901335B00019302E0A5
:10265000019B013B0193019B002BF9D100208DE5EB
:1026600015F0807FD5D10D4B9A4201D0002085E531
:102670004CF08073B26822F0E0721343B360002024
:102680007CE515F4800F48D1044B9A423AD00020E3
:1026900074E500BF002002400021024000600258A3
:1026A00002003004040060080800900C1000C01004
:1026B0000004002A000021430000844B0000B84FB2
:1026C000002090360040C03A0080F03E40002019C3
:1026D0008000501D000180210002B0250008302E2E
:1026E000001060320000524700230240006302588D
:1026F000000052C7000021C3000084CB0C00002062
:10270000632D3E054CF48003B26822F0E07213435F
:10271000B360002032E5002030E500202EE50220E5
:102720002FE500BF10B5044603684349434A93426E
:1027300018BF8B421FD1424B9B6803F44033003BD0
:1027400018BF01230BB301F005F86368B3F5003F30
:1027500005D0B3F5403F16D0B3F5803F02D11B0C36
:10276000B0FBF3F0374B984249D82268936823F4C2
:102770004073936010BD344B9B6803F44033003BBF
:1027800018BF0123DEE78008ECE74FF400200021AA
:1027900002F086F96368B3F5101F2CD021D8B3F589
:1027A000E01F26D004D9B3F5001FDBD14009D9E7DB
:1027B000B3F5801F10D009D8B3F5002F0CD0B3F5B6
:1027C000402F09D0B3F5802F06D0CBE7B3F5A01F7B
:1027D00002D0B3F5C01FC5D19B0C5B00B0FBF3F07A
:1027E000C0E7B3F5201F08D0B3F5301FBAD1000AF7
:1027F000B8E70009B6E78009B4E7C009B2E7134BB0
:10280000984207D82268936823F4407343F4807396
:102810009360AFE70E4B984207D82268936823F481
:10282000407343F400739360A4E72268936843F411
:10283000407393609EE700BF0020024000210240E9
:102840000023024021BCBE000063025841787D0194
:1028500081F0FA0230B583B000230193002800F024
:102860008F810446036E0BBB9E4B03679E4B4367F1
:102870009E4B83679E4BC3679E4BC0F880309E4B38
:10288000C0F884309D4BC0F888309D4BC0F88C3028
:102890009C4BC0F89030D0F894302BB3D4F89430DF
:1028A000204698470023636684F85C3023689A6862
:1028B00012F0005F03D09968934A0A409A60236837
:1028C0009A6812F0805F19D19968904A0A4042F0E4
:1028D00080529A608E4B1B689B098E4AA2FB032391
:1028E0009B090133019306E08B4BC0F89430D5E788
:1028F000019B013B0193019B002BF9D123689A684E
:1029000012F0805F40F09E80226E42F0100222663C
:10291000626E42F00102626601259A6812F00402BA
:1029200000D00122216E11F0100F40F02181002A09
:1029300040F01E81216E21F4817141F00201216677
:10294000996811F0010F1ED1744875498B4218BF68
:1029500083420CBF0123002376D1806810F0010070
:1029600000D001206E49896811F0010100D00121D9
:10297000014308D1002B6DD06A486368816821F457
:102980007C110B4383602168674B994264D0627E5F
:10299000E36B43EA4233A268134394F8202043EAEE
:1029A000024394F82020012A6ED0A26A22B102F4D8
:1029B0007872E06A024313435B4A914269D0C86867
:1029C0005A4A02401A43CA602268936813F004030B
:1029D00000D00123916811F0080F23D113BB524B93
:1029E0009A4263D0237E216B41EA8331D068504BF9
:1029F00003400B43D36094F84430012B5DD0226830
:102A0000136923F0010313612268136923F07043F3
:102A1000216C0B4313612268434B9A4202D020463B
:102A2000FFF780FE2369012B00F099802268136B69
:102A300023F00F031363236E23F0030343F001031A
:102A400023669AE0002568E73749896811F0010F8D
:102A500099D18FE7374890E7607EE36B43EA4033D4
:102A6000E0680343A068182804D01C2808D00C286C
:102A700008D10820034394F8202043EA024390E75A
:102A80001020F7E71046F5E7626A013A43EA42434D
:102A90008BE7C868284A02401A43CA602268136953
:102AA00023F04063616B0B4313618DE7237E94F841
:102AB0003810490041EA833198E721681A4B99425E
:102AC0003ED00A691D4B1340A26C501EE26C42EAD4
:102AD0000042206D0243606D0243134343F0010343
:102AE0000B6191E70D2100080F210008112100085A
:102AF00013210008892B00088B2B00088D2B000860
:102B00008F2B0008912B0008C0FFFF5FC0FFFF6FF5
:102B10000C000020632D3E05E10B00080020024060
:102B200000210240002302400060025803C0F0FF71
:102B3000FCBFFFFF006302580740F0FF1EF800FCD7
:102B40000A69104B1340A26CE06C0243206D0243F3
:102B5000606D0243134343F001030B6154E72168A6
:102B60000B6B23F00F03E269013A13430B6362E737
:102B7000236E43F0100323660125284603B030BDC1
:102B80000125FAE71FF800FC70477047704770474F
:102B90007047000090F85C20012A00F0968030B465
:102BA000A8B00346012280F85C20002219921A92F4
:102BB0000068474A904236D000220192019A002ACA
:102BC00035D0926812F0040200D00122846814F01B
:102BD000040F6BD1002A69D13D4C3E4A904218BF88
:102BE000A0422DD102F500720868002839D0906803
:102BF00020F440404C68204390601868344D354CB8
:102C0000A04218BFA8421DD1AC6814F0010400D046
:102C100001243048806810F0010000D001202043DA
:102C200015D0002047E002F580720192C6E71A6EC7
:102C300042F020021A66002283F85C2001203DE069
:102C4000254AD1E72548806810F0010F39D19468F2
:102C5000234820400C688968214308439060002085
:102C600029E0916821F4404191601968184C194895
:102C7000814218BFA1420ED1A06810F0010000D01F
:102C800001201449896811F0010100D0012101439C
:102C900006D000200FE01149896811F0010F12D110
:102CA00090680F4901409160002004E01A6E42F0E4
:102CB00020021A660120002283F85C2028B030BC74
:102CC00070470020F7E70020F5E70220704700BFBB
:102CD00000200240002102400063025800600258B8
:102CE000E0F0FFFF002800F0D58238B50446036805
:102CF00013F0010F25D0A04A136903F03803926A3C
:102D0000102B15D0182B0FD06368B3F5803F3FD040
:102D1000002B53D1984B1A6822F480321A601A683B
:102D200022F480221A6038E002F00302022AEBD17A
:102D3000914B1B6813F4003F03D06368002B00F035
:102D4000AB82236813F0020F00F088808A4A13696F
:102D5000926A13F038035AD0182B55D0E368002B31
:102D600000F0A98084490A6822F0190213430B601D
:102D700003F034FD0546804B1B6813F0040F40F050
:102D8000918003F02BFD401B0228F4D903208AE236
:102D9000794A136843F48033136063682BB303F0FC
:102DA0001DFD0546744B1B6813F4003FC9D103F0A9
:102DB00015FD401B6428F5D9032074E2B3F5A02F5C
:102DC00009D06D4B1A6822F480321A601A6822F416
:102DD00080221A60E1E7684B1A6842F480221A6088
:102DE0001A6842F480321A60D7E703F0F7FC054610
:102DF000614B1B6813F4003FA3D003F0EFFC401BB2
:102E00006428F5D903204EE212F0030FA6D15A4BE5
:102E10001B6813F0040F03D0E368002B00F03E8220
:102E2000554A136823F01903E1680B43136003F05C
:102E3000D5FC0546504B1B6813F0040F06D103F078
:102E4000CDFC401B0228F5D903202CE24A4A5368E6
:102E500023F0FE43216943EA01635360236813F0C2
:102E6000100F51D0444A136903F03803926A082BBB
:102E700039D0182B33D0E369002B69D03E4A136850
:102E800043F08003136003F0A9FC05463A4B1B682E
:102E900013F4807F53D103F0A1FC401B0228F5D925
:102EA000032000E2344A536823F0FE43216943EAD9
:102EB00001635360D2E7304A136823F001031360C3
:102EC00003F08CFC05462C4B1B6813F0040FC5D097
:102ED00003F084FC401B0228F5D90320E3E102F053
:102EE0000302012AC7D1244B1B6813F4807F03D04F
:102EF000E369802B40F0D4811F4AD36823F07C53D0
:102F0000216A43EA0163D360236813F0080F49D0B4
:102F10006369002B32D0184A536F43F001035367A3
:102F200003F05CFC0546144B5B6F13F0020F39D1C4
:102F300003F054FC401B0228F5D90320B3E10E4AEC
:102F4000D36823F07C53216A43EA0163D360DBE753
:102F5000094A136823F08003136003F03FFC054621
:102F6000054B1B6813F4807FCED003F037FC401B69
:102F70000228F5D9032096E1004402589D4A536F78
:102F800023F00103536703F029FC0546994B5B6F5F
:102F900013F0020F06D003F021FC401B0228F5D9E4
:102FA000032080E1236813F0200F29D0A3699BB18F
:102FB000904A136843F48053136003F00FFC0546F6
:102FC0008C4B1B6813F4005F1AD103F007FC401B05
:102FD0000228F5D9032066E1864A136823F480535A
:102FE000136003F0FBFB0546824B1B6813F4005F84
:102FF00006D003F0F3FB401B0228F5D9032052E171
:10300000236813F0040F21D1636A002B00F04A817A
:10301000784A126902F03802182A00F0F180022B77
:1030200075D0744A136823F08073136003F0D6FBE5
:103030000446704B1B6813F0007F00F0D88003F04B
:10304000CDFB001B0228F4D903202CE16A4A136847
:1030500043F48073136003F0C1FB0546664B1B68A5
:1030600013F4807F06D103F0B9FB401B6428F5D927
:10307000032018E1A368012B0AD00BBB5D4B1A6F2C
:1030800022F001021A671A6F22F004021A6704E0A4
:10309000584A136F43F001031367A36833B303F077
:1030A0009DFB0546534B1B6F13F0020FACD103F091
:1030B00095FB401B41F288339842F3D90320F2E09C
:1030C000052B09D04B4B1A6F22F001021A671A6FB9
:1030D00022F004021A67E0E7464B1A6F42F004023E
:1030E0001A671A6F42F001021A67D6E703F076FBFF
:1030F0000546404B1B6F13F0020F85D003F06EFBAB
:10310000401B41F288339842F3D90320CBE0394A7F
:10311000136823F08073136003F060FB0546354BA2
:103120001B6813F0007F06D003F058FB401B0228F9
:10313000F5D90320B7E02F4B996A304A0A40A16ABB
:10314000E06A41EA00110A439A62226B013AC2F333
:103150000802616B0139490289B20A43A16B013946
:10316000090401F4FE010A43E16B0139090601F08B
:10317000FE410A431A63DA6A22F00102DA625A6BEC
:103180006FF3CF02A16C42EAC1025A63DA6A22F0FD
:103190000C02216C0A43DA62DA6A22F00202616CE4
:1031A0000A43DA62DA6A42F48032DA62DA6A42F4B4
:1031B0000032DA62DA6A42F48022DA62DA6A42F0D3
:1031C0000102DA621A6842F080721A6003F006FBAC
:1031D0000446084B1B6813F0007F06D103F0FEFA8B
:1031E000001B0228F5D903205DE000205BE00020F1
:1031F00059E000BF00440258004802580CFCFFFF91
:1032000030498A6A086B012B4ED002F00303A16A91
:103210008B424BD1C2F30512E36A9A4248D1C0F304
:103220000802236B013B9A4244D1C0F34622636BF0
:10323000013B9A4240D1C0F30642A36B013B9A4244
:103240003CD1C0F30660E36B013B984238D11D4B83
:103250005B6BC3F3CC03A26C9A4201D1002022E045
:10326000184AD36A23F00103D36203F0B7FA054684
:1032700003F0B4FAA842FBD0124A536B6FF3CF03AA
:10328000A16C43EAC1035363D36A43F00103D362E1
:10329000002008E001207047012004E0012002E046
:1032A000012000E0002038BD0120FCE70120FAE702
:1032B0000120F8E70120F6E70120F4E70120F2E71A
:1032C0000120F0E700440258754B1B6903F03803F6
:1032D000102B00F0DE80182B0FD0002B40F0DB808D
:1032E0006F4B1B6813F0200F00F0D7806C4B1B68EE
:1032F000C3F3C1036B48D840704710B4684B9A6A57
:1033000002F003029C6AC4F30510D96A01F00101BE
:103310005B6BC3F3CC0301FB03F307EE903AF8EECB
:10332000677A14F47C7F77D0012A4AD0022A76D0BB
:10333000002A40F091805A4B1B6813F0200F23D0D5
:1033400057490A68C2F3C102564BD34007EE103A00
:10335000F8EE476A07EE100AB8EE476A86EE867AFC
:103360000B6BC3F3080306EE903AF8EE666A9FED26
:103370004E6A67EE867A76EEA77AF7EE006A77EE07
:10338000A67A27EE277A38E007EE100AF8EE476AA9
:103390009FED466A86EE267A414B1B6BC3F308030A
:1033A00006EE903AF8EE666A9FED3F6A67EE867A1F
:1033B00076EEA77AF7EE006A77EEA67A27EE277AFE
:1033C0001BE007EE100AF8EE476A9FED396A86EEB9
:1033D000267A334B1B6BC3F3080306EE903AF8EEE4
:1033E000666A9FED316A67EE867A76EEA77AF7EE27
:1033F000006A77EEA67A27EE277A294B1B6BC3F378
:103400004623013307EE903AF8EE677AC7EE276A53
:10341000FCEEE67A17EE900A5DF8044B704707EE73
:10342000100AF8EE476A9FED236A86EE267A1C4B57
:103430001B6BC3F3080306EE903AF8EE666A9FED45
:103440001A6A67EE867A76EEA77AF7EE006A77EE6A
:10345000A67A27EE277AD0E707EE100AF8EE476A39
:103460009FED136A86EE267A0D4B1B6BC3F30803A0
:1034700006EE903AF8EE666A9FED0B6A67EE867A82
:1034800076EEA77AF7EE006A77EEA67A27EE277A2D
:10349000B3E709487047094870470248704700BFC2
:1034A000004402580090D003000000390024744CFE
:1034B0000024744A20BCBE4B40787D0100093D00C9
:1034C000002800F0328170B50D4604469B4B1B6806
:1034D00003F00F038B420BD2984A136823F00F03BB
:1034E0000B431360136803F00F038B4240F01F81FE
:1034F000236813F0040F0CD02269914B9B6903F0F1
:1035000070039A4205D98E498B6923F070031A43E0
:103510008A61236813F0080F0CD06269884BDB695D
:1035200003F070039A4205D98549CB6923F07003F3
:103530001A43CA61236813F0100F0CD0A269804BA4
:10354000DB6903F4E0639A4205D97D49CB6923F432
:10355000E0631A43CA61236813F0200F0CD0E269BC
:10356000774B1B6A03F070039A4205D974490B6AC2
:1035700023F070031A430A62236813F0020F0CD081
:10358000E2686F4B9B6903F00F039A4205D96C49BF
:103590008B6923F00F031A438A61236813F0010F2C
:1035A00041D0674A936923F47063A1680B43936128
:1035B0006368022B0AD0032B27D0012B2CD0604A42
:1035C000126812F0040F06D10120ADE0126812F467
:1035D000003F00F0AE805A490A6922F00702134307
:1035E0000B6103F0FBF80646554B1B6903F03803EB
:1035F0006268B3EBC20F16D003F0F0F8801B41F203
:1036000088339842F0D903208EE04D4A126812F0B8
:10361000007FE0D1012087E0494A126812F4807FE0
:10362000D9D1012080E0236813F0020F0CD0E268AA
:10363000434B9B6903F00F039A4205D240498B69C3
:1036400023F00F031A438A613C4B1B6803F00F03FE
:10365000AB420AD9394A136823F00F032B43136096
:10366000136803F00F03AB4265D1236813F0040F16
:103670000CD02269324B9B6903F070039A4205D249
:103680002F498B6923F070031A438A61236813F072
:10369000080F0CD062692A4BDB6903F070039A4271
:1036A00005D22749CB6923F070031A43CA61236806
:1036B00013F0100F0CD0A269214BDB6903F4E06317
:1036C0009A4205D21E49CB6923F4E0631A43CA61CA
:1036D000236813F0200F0CD0E269194B1B6A03F02A
:1036E00070039A4205D216490B6A23F070031A43FD
:1036F0000A62FFF7E9FD12498B69C3F30323114AFC
:10370000D35C03F01F03D8408B6903F00F03D35C35
:1037100003F01F0320FA03F30B4A13600B4B1860EE
:103720000B4B1868FDF7E8FD70BD012070470120C4
:10373000FAE70120F8E70120F6E700BF0020005279
:103740000044025860A90008080000200C00002076
:103750000400002008B5FFF7B7FD0B4A9369C3F3D7
:1037600003230A49CB5C03F01F0320FA03F3926999
:1037700002F00F02885C00F01F0023FA00F0044AF8
:103780001060044A136008BD0044025860A9000894
:10379000080000200C00002008B5FFF7DBFF054BF8
:1037A000DB69C3F30213044AD35C03F01F03D84060
:1037B00008BD00BF0044025860A9000808B5FFF723
:1037C000C9FF054BDB69C3F30223044AD35C03F052
:1037D0001F03D84008BD00BF0044025860A900087C
:1037E0003F230360114B1A6902F0070242609A6995
:1037F00002F4706282609A6902F00F02C2609A69F4
:1038000002F070020261DA6902F070024261DA6964
:1038100002F4E06282611B6A03F07003C361044B2F
:103820001B6803F00F030B60704700BF0044025891
:1038300000200052404B9B6A03F00303032B79D016
:1038400070B505460E463C4A136823F0806313604A
:1038500002F0C4FF0446384B1B6813F0006F06D01B
:1038600002F0BCFF031B022BF5D9032070BD324BC5
:103870009A6A22F47C32296842EA01329A626A68C2
:10388000013AC2F30802A9680139490289B20A4320
:10389000E9680139090401F4FE010A432969013983
:1038A000090601F0FE410A439A63DA6A22F0C00277
:1038B00069690A43DA62DA6A22F02002A9690A43D6
:1038C000DA62DA6A22F01002DA62DA6B6FF3CF02A0
:1038D000E96942EAC102DA63DA6A42F01002DA62A6
:1038E000C6B91A46DB6A43F40023D362124A13684E
:1038F00043F08063136002F071FF04460E4B1B68B7
:1039000013F0006F14D102F069FF001B0228F5D9F3
:103910000320ABE7012E05D0074AD36A43F4001316
:10392000D362E3E7044AD36A43F48013D362DDE74A
:1039300000209BE70120704700440258404B9B6ADF
:1039400003F00303032B79D070B505460E463C4ABD
:10395000136823F08053136002F040FF0446384B95
:103960001B6813F0005F06D002F038FF031B022B28
:10397000F5D9032070BD324B9A6A22F07C72296817
:1039800042EA01529A626A68013AC2F30802A968DF
:103990000139490289B20A43E9680139090401F48D
:1039A000FE010A4329690139090601F0FE410A4373
:1039B0001A64DA6A22F4406269690A43DA62DA6AEE
:1039C00022F40072A9690A43DA62DA6A22F4807288
:1039D000DA625A6C6FF3CF02E96942EAC1025A64B3
:1039E000DA6A42F48072DA62C6B91A46DB6A43F4D4
:1039F0008003D362124A136843F08053136002F0CD
:103A0000EDFE04460E4B1B6813F0005F14D102F06C
:103A1000E5FE001B0228F5D90320ABE7012E05D0F7
:103A2000074AD36A43F08073D362E3E7044AD36A58
:103A300043F40003D362DDE700209BE701207047D9
:103A400000440258F8B50446036813F0006F30D004
:103A5000436EB3F5001F26D00ED8ABB1B3F5801F6F
:103A600007D102210830FFF7E5FE054695B12E4645
:103A700021E0012635461EE0B3F5401F01D10025A7
:103A800008E00126354616E09B4AD36A43F400332A
:103A9000D3620025984A136D23F44013616E0B43E3
:103AA0001365002607E002212830FFF747FF05468F
:103AB000DCE700263546236813F4807F14D0A36D1D
:103AC000042B34D8DFE803F003252C0808008A4AC9
:103AD000D36A43F40033D36265BB874A136D23F086
:103AE0000703A16D0B431365236813F4806F47D060
:103AF000D4F8A430B3F5800F33D020D85BB3B3F53E
:103B0000001F19D1002104F10800FFF793FE0546BC
:103B10002DE0002104F10800FFF78CFE0546DBE7ED
:103B2000002104F12800FFF709FF0546D4E701262C
:103B30003546D9E72E46D7E70126354620E0B3F5CE
:103B4000000F14D0B3F5200F11D0B3F5C00F0ED075
:103B50000126354614E0684AD36A43F40033D36241
:103B600005E0002104F12800FFF7E8FE0546E5B96D
:103B7000614A936D23F46003D4F8A4100B4393655A
:103B8000236813F4006F36D0D4F8A830B3F1007F67
:103B900022D00FD8D3B1B3F1807F08D1002104F136
:103BA0000800FFF747FE05461CE02E46E8E7012621
:103BB000354620E0B3F1806F14D0B3F1A06F11D07F
:103BC000B3F1407F0ED00126354614E04A4AD36A4D
:103BD00043F40033D36205E0002104F12800FFF72D
:103BE000ADFE0546C5B9444A936D23F0E063D4F8B1
:103BF000A8100B439365236813F0007F24D0E36C77
:103C0000202B13D00DD8BBB1102B07D13A4AD36A61
:103C100043F40033D3620FE02E46ECE7012635462D
:103C200012E0302B08D0012635460DE0022104F1C8
:103C30000800FFF7FFFD0546D5B92F4AD36C23F0E6
:103C40003003E16C0B43D364236813F4805F31D0FD
:103C5000E36DB3F5005F1FD00FD8BBB1B3F5805F44
:103C600008D1002104F10800FFF7E4FD054619E042
:103C70002E46E9E7012635461CE0B3F5405F11D03A
:103C8000B3F5804F0ED00126354613E01A4AD36AA9
:103C900043F40033D36205E0002104F12800FFF76C
:103CA0004DFE054615BB144A136D23F4E043E16D48
:103CB0000B431365236813F4005F33D0236EB3F511
:103CC000003F27D01AD843B1B3F5803F10D101216E
:103CD00004F10800FFF7AEFD054615BB064A136D5B
:103CE00023F4E023216E0B4313651BE02E46E1E72E
:103CF0000126354616E000BF00440258B3F5802F78
:103D0000EBD0B3F5A02FE8D0B3F5403FE5D00126C6
:103D1000354607E0012104F12800FFF70FFE0546B4
:103D2000DBE72E46236813F4804F30D0D4F8AC3054
:103D3000B3F1005F23D016D843B1B3F1805F0FD148
:103D4000012104F10800FFF775FD0546F5B98B4A1E
:103D5000936D23F0E043D4F8AC100B43936516E069
:103D60000126354613E0B3F1804FEFD0B3F1A04FF9
:103D7000ECD0B3F1405FE9D00126354607E00121E0
:103D800004F12800FFF7DAFD0546DFE72E46236839
:103D900013F4004F20D0E36EB3F1805F06D0B3F18F
:103DA000005F11D03BB10126354615E0734AD36A56
:103DB00043F40033D36275B9704A136D23F0405356
:103DC000E16E0B43136507E0012104F10800FFF7E2
:103DD00031FD0546EFE72E46236813F0807F13D0B0
:103DE000A36C032B3BD8DFE803F007023307634AD9
:103DF000D36A43F40033D362A5BB604AD36C23F08B
:103E00000303A16C0B43D364236813F4800F2BD1FD
:103E1000236813F0010F00F0A380A36F282B00F29A
:103E20009D80DFE803F08B9B9B9B9B9B9B9B859BD3
:103E30009B9B9B9B9B9B949B9B9B9B9B9B9B8B9BE9
:103E40009B9B9B9B9B9B8B9B9B9B9B9B9B9B8B007D
:103E5000022104F10800FFF7EDFC0546CCE701263E
:103E60003546D1E72E46CFE7454A136843F48073C1
:103E7000136002F0B3FC0746414B1B6813F4807FCC
:103E800005D102F0ABFCC01B6428F5D90325002D39
:103E90004AD13A4B1B6FD4F8B020534013F4407F03
:103EA0000CD0364B1A6F22F44072196F41F48031F6
:103EB0001967196F21F4803119671A67D4F8B03087
:103EC000B3F5807F15D08DBBD4F8B03003F44072C9
:103ED000B2F5407F1ED0294A136923F47C53136145
:103EE00026490B6FD4F8B020C2F30B0213430B67C3
:103EF0008EE702F073FC0746204B1B6F13F0020F96
:103F0000E1D102F06BFCC01B41F288339842F3D937
:103F10000325D8E71948026922F47C52194901EABD
:103F2000131313430361DBE72E4671E72E466FE759
:103F3000012104F10800FFF77DFC0546E5B90F4AB1
:103F4000536D23F03803A16F0B43536508E0012143
:103F500004F12800FFF7F2FC0546EFE7012635469D
:103F6000236813F0020F1DD0636F052B32D8DFE8F2
:103F700003F0110B2A1111112E46F1E700440258EB
:103F800000480258CFFFFF00012104F10800FFF7AD
:103F900051FC05460DBBB74A536D23F00703616F13
:103FA0000B435365236813F0040F29D0D4F89030E5
:103FB000052B00F20881DFE813F018001200FF0063
:103FC000180018001800012104F12800FFF7B6FCC2
:103FD0000546DFE701263546E4E72E46E2E7012104
:103FE00004F10800FFF726FC0546002D40F0EE80A6
:103FF000A04A936D23F00703D4F890100B43936508
:10400000236813F0200F1DD0D4F88C30B3F1005F7B
:1040100000F0F08000F2DF804BB1B3F1805F40F040
:10402000D780002104F10800FFF704FC0546002DAD
:1040300040F0E7808F4A536D23F0E043D4F88C10B2
:104040000B435365236813F0400F1DD0D4F898300C
:10405000B3F5006F00F0E98000F2D8804BB1B3F502
:10406000806F40F0D080002104F10800FFF7E2FBF0
:104070000546002D40F0E0807E4A936D23F4E05326
:10408000D4F898100B439365236813F0800F1DD06C
:10409000D4F89C30B3F5804F00F0E28000F2D1807C
:1040A0004BB1B3F5005F40F0C980002104F1080076
:1040B000FFF7C0FB0546002D40F0D9806D4A936D97
:1040C00023F46043D4F89C100B439365236813F0EA
:1040D000080F0DD0D4F88030B3F5805F00F0CC80AD
:1040E000644A536D23F44053D4F880100B43536556
:1040F000236813F0100F0DD0D4F89430B3F5807FFF
:1041000000F0C4805B4A936D23F44073D4F894109C
:104110000B439365236813F4002F1CD0D4F8A03010
:10412000B3F5803F00F0BC80B3F5003F08D0002B12
:1041300040F0BD80002104F10800FFF77BFB05463D
:10414000002D40F0B7804B4A936D23F44033D4F8F0
:10415000A0100B439365236813F4802F1CD0D4F870
:104160008430B3F5001F00F0A780B3F5401F08D0DE
:10417000B3F5801F40F0A7803E4AD36A43F4003372
:10418000D362002D40F0A2803A4A536D23F44013CD
:10419000D4F884100B435365236813F4803F00F078
:1041A000AD80236D002B00F09380B3F5803F00F0CD
:1041B0009D8001263546A1E0012104F12800FFF78A
:1041C000BDFB054611E70126354619E72E4617E7E0
:1041D0000126354636E7B3F1804F3FF428AFB3F1FF
:1041E000A04F3FF424AFB3F1405F3FF420AF01266E
:1041F000354627E7022104F12800FFF79FFB05461B
:1042000015E72E461EE7012635463DE7B3F5805FEC
:104210003FF42FAFB3F5A05F3FF42BAFB3F5406F82
:104220003FF427AF012635462EE7022104F128008E
:10423000FFF784FB05461CE72E4625E70126354699
:1042400044E7B3F5004F3FF436AFB3F5204F3FF4EA
:1042500032AFB3F5C04F3FF42EAF0126354635E7F8
:10426000022104F12800FFF769FB054623E72E46EB
:104270002CE700BF00440258022104F12800FFF798
:104280005DFB00283FF42CAF012629E7022104F151
:104290002800FFF753FB00283FF434AF012631E735
:1042A000022104F12800FFF749FB054648E70126F3
:1042B000354650E72E464EE7012104F12800FFF76E
:1042C0003DFB05465DE70126354665E72E4663E77B
:1042D000694AD36A43F40033D36275B9664AD36C32
:1042E00023F48033216D0B43D36407E0022104F1F2
:1042F0000800FFF79FFA0546EFE72E46236813F004
:10430000005F10D1236813F4003F26D0E36FB3F5AC
:10431000807F14D010D9B3F5007F15D0B3F5407F5E
:1043200012D0012619E0022104F12800FFF706FB54
:104330000028E7D00126E5E733B101260DE04E4A1B
:10434000D36A43F40033D362002D5CD14A4A536DE3
:1043500023F44073E16F0B435365236813F4801F0C
:1043600006D0454A136D23F00043216F0B431365BC
:10437000236813F4001F06D03F4A136D23F08073A7
:10438000A16E0B431365236813F0804F09D03A4B9D
:104390001A6922F400421A611A69D4F8B4100A4367
:1043A0001A612368002B06DA334AD36C23F040539A
:1043B000616D0B43D364236813F4000F07D02E4ABA
:1043C000536D23F44003D4F888100B43536563689E
:1043D00013F0010F19D1636813F0020F1ED1636847
:1043E00013F0040F23D1636813F0080F28D163681A
:1043F00013F0100F2DD1636813F0200F32D106B1E6
:1044000001263046F8BD2E46A7E7002104F108003A
:10441000FFF710FA0028DED00646DCE7012104F1A0
:104420000800FFF707FA0028D9D00646D7E702218F
:1044300004F10800FFF7FEF90028D4D00646D2E7C1
:10444000002104F12800FFF779FA0028CFD00646B2
:10445000CDE7012104F12800FFF770FA0028CAD047
:104460000646C8E7022104F12800FFF767FA002892
:10447000C5D00126C5E700BF0044025808B5FFF7C4
:1044800069F9054B1B6AC3F30213044AD35C03F0BA
:104490001F03D84008BD00BF0044025860A90008AF
:1044A00010B4794B9A6A9C6AC4F3053CD96AC1F38B
:1044B0000011DB6BC3F3CC0301FB03F314F47C3F6B
:1044C00000F0DD8002F0030207EE903AF8EE677A22
:1044D000012A4BD0022A00F09880002A40F0B280D6
:1044E000694B1B6813F0200F23D067490A68C2F399
:1044F000C102664BD34007EE103AF8EE476A07EE6A
:1045000010CAB8EE476A86EE867A8B6BC3F308034F
:1045100006EE903AF8EE666A9FED5D6A67EE867A7F
:1045200076EEA77AF7EE006A77EEA67A27EE277A7C
:1045300038E007EE10CAF8EE476A9FED566A86EE3D
:10454000267A514B9B6BC3F3080306EE903AF8EEC4
:10455000666A9FED4F6A67EE867A76EEA77AF7EE87
:10456000006A77EEA67A27EE277A1BE007EE10CADC
:10457000F8EE476A9FED486A86EE267A424B9B6BBF
:10458000C3F3080306EE903AF8EE666A9FED406AC0
:1045900067EE867A76EEA77AF7EE006A77EEA67A6D
:1045A00027EE277A384A936BC3F3462307EE903AF7
:1045B000F8EE677AF7EE006A77EEA67A87EE276A5A
:1045C000BCEEC66A80ED006A936BC3F3064307EE48
:1045D000903AF8EE677A77EEA67A87EE276ABCEE15
:1045E000C66A80ED016A936BC3F3066307EE903AE7
:1045F000F8EE677A77EEA67AC7EE276AFCEEE66AEF
:10460000C0ED026A5DF8044B704707EE10CAF8EE81
:10461000476A9FED226A86EE267A1B4B9B6BC3F39B
:10462000080306EE903AF8EE666A9FED196A67EEA7
:10463000867A76EEA77AF7EE006A77EEA67A27EE0C
:10464000277AAFE707EE10CAF8EE476A9FED126AC5
:1046500086EE267A0C4B9B6BC3F3080306EE903A6A
:10466000F8EE666A9FED0A6A67EE867A76EEA77ABA
:10467000F7EE006A77EEA67A27EE277A92E7002314
:10468000036043608360BDE7004402580090D0039C
:10469000000000390024744C0024744A20BCBE4B36
:1046A00010B4794B9A6A9C6AC4F3055CD96AC1F369
:1046B00000215B6CC3F3CC0301FB03F314F07C7F9C
:1046C00000F0DD8002F0030207EE903AF8EE677A20
:1046D000012A4BD0022A00F09880002A40F0B280D4
:1046E000694B1B6813F0200F23D067490A68C2F397
:1046F000C102664BD34007EE103AF8EE476A07EE68
:1047000010CAB8EE476A86EE867A0B6CC3F30803CC
:1047100006EE903AF8EE666A9FED5D6A67EE867A7D
:1047200076EEA77AF7EE006A77EEA67A27EE277A7A
:1047300038E007EE10CAF8EE476A9FED566A86EE3B
:10474000267A514B1B6CC3F3080306EE903AF8EE41
:10475000666A9FED4F6A67EE867A76EEA77AF7EE85
:10476000006A77EEA67A27EE277A1BE007EE10CADA
:10477000F8EE476A9FED486A86EE267A424B1B6C3C
:10478000C3F3080306EE903AF8EE666A9FED406ABE
:1047900067EE867A76EEA77AF7EE006A77EEA67A6B
:1047A00027EE277A384A136CC3F3462307EE903A74
:1047B000F8EE677AF7EE006A77EEA67A87EE276A58
:1047C000BCEEC66A80ED006A136CC3F3064307EEC5
:1047D000903AF8EE677A77EEA67A87EE276ABCEE13
:1047E000C66A80ED016A136CC3F3066307EE903A64
:1047F000F8EE677A77EEA67AC7EE276AFCEEE66AED
:10480000C0ED026A5DF8044B704707EE10CAF8EE7F
:10481000476A9FED226A86EE267A1B4B1B6CC3F318
:10482000080306EE903AF8EE666A9FED196A67EEA5
:10483000867A76EEA77AF7EE006A77EEA67A27EE0A
:10484000277AAFE707EE10CAF8EE476A9FED126AC3
:1048500086EE267A0C4B1B6CC3F3080306EE903AE7
:10486000F8EE666A9FED0A6A67EE867A76EEA77AB8
:10487000F7EE006A77EEA67A27EE277A92E7002312
:10488000036043608360BDE7004402580090D0039A
:10489000000000390024744C0024744A20BCBE4B34
:1048A00010B4794B9A6A9C6AC4F3051CD96A01F06A
:1048B00001015B6BC3F3CC0301FB03F314F47C7FB6
:1048C00000F0DD8002F0030207EE903AF8EE677A1E
:1048D000012A4BD0022A00F09880002A40F0B280D2
:1048E000694B1B6813F0200F23D067490A68C2F395
:1048F000C102664BD34007EE103AF8EE476A07EE66
:1049000010CAB8EE476A86EE867A0B6BC3F30803CB
:1049100006EE903AF8EE666A9FED5D6A67EE867A7B
:1049200076EEA77AF7EE006A77EEA67A27EE277A78
:1049300038E007EE10CAF8EE476A9FED566A86EE39
:10494000267A514B1B6BC3F3080306EE903AF8EE40
:10495000666A9FED4F6A67EE867A76EEA77AF7EE83
:10496000006A77EEA67A27EE277A1BE007EE10CAD8
:10497000F8EE476A9FED486A86EE267A424B1B6B3B
:10498000C3F3080306EE903AF8EE666A9FED406ABC
:1049900067EE867A76EEA77AF7EE006A77EEA67A69
:1049A00027EE277A384A136BC3F3462307EE903A73
:1049B000F8EE677AF7EE006A77EEA67A87EE276A56
:1049C000BCEEC66A80ED006A136BC3F3064307EEC4
:1049D000903AF8EE677A77EEA67A87EE276ABCEE11
:1049E000C66A80ED016A136BC3F3066307EE903A63
:1049F000F8EE677A77EEA67AC7EE276AFCEEE66AEB
:104A0000C0ED026A5DF8044B704707EE10CAF8EE7D
:104A1000476A9FED226A86EE267A1B4B1B6BC3F317
:104A2000080306EE903AF8EE666A9FED196A67EEA3
:104A3000867A76EEA77AF7EE006A77EEA67A27EE08
:104A4000277AAFE707EE10CAF8EE476A9FED116AC2
:104A500086EE267A0C4B1B6BC3F3080306EE903AE6
:104A6000F8EE666A9FED0A6A67EE867A76EEA77AB6
:104A7000F7EE006A77EEA67A27EE277A92E7002310
:104A8000036043608360BDE7004402580090D00398
:104A9000000000390024744C0024744A20BCBE4B32
:104AA00000B58BB0A0F580730B4328D0A0F58063D0
:104AB0000B4377D0A0F500630B4300F0CE80A0F548
:104AC00080530B4300F02681A0F500530B4300F008
:104AD0008581A0F500230B4300F0CE81A0F5803343
:104AE0000B4300F01182A0F580430B4300F02A82B3
:104AF000A0F50040084300F07B8200200CE0954BBD
:104B00001B6D03F00703042B00F29C82DFE803F027
:104B100007111B03250090480BB05DF804FB8D4B7B
:104B2000186810F00070F7D007A8FFF7B9FE0898D2
:104B3000F2E7884B186810F00060EDD004A8FFF78A
:104B4000AFFC0498E8E7834B186810F00050E3D0FE
:104B500001A8FFF7A5FD0198DEE77E4AD36C03F0BC
:104B60004053126812F0040F07D033B9794B1B6819
:104B7000C3F3C1037948D840CEE7764A126812F4ED
:104B8000807F03D0B3F1805F00F05E82714A1268CB
:104B900012F4003F00F05A82B3F1005F00F0588237
:104BA0000020B9E76B4B9B6D03F46003B3F5800FF6
:104BB00033D016D9B3F5C00F00F04C82B3F5000F17
:104BC0001FD1644AD36C03F04053126812F0040FF3
:104BD0002ED06BBB5F4B1B68C3F3C1035F48D8404B
:104BE0009AE783B1B3F5001F09D15A4B186810F04A
:104BF000006091D004A8FFF753FC04988CE70020D4
:104C00008AE7002088E7534B186810F0007083D0C3
:104C100007A8FFF745FE08987EE74E4B186810F08E
:104C200000503FF479AF01A8FFF73AFD019873E710
:104C3000484A126812F4807F03D0B3F1805F00F01D
:104C40000B82444A126812F4003F00F00782B3F16D
:104C5000005F00F0058200205EE73E4B9B6D03F095
:104C6000E063B3F1007F35D016D9B3F1407F00F097
:104C7000F981B3F1806F20D1364AD36C03F04053F1
:104C8000126812F0040F30D07BBB324B1B68C3F3A9
:104C9000C1033248D8403FE78BB1B3F1807F0AD1DE
:104CA0002C4B186810F000603FF436AF04A8FFF7F3
:104CB000F7FB049830E700202EE700202CE7254B77
:104CC000186810F000703FF427AF07A8FFF7E8FD61
:104CD000089821E71F4B186810F000503FF41CAFF4
:104CE00001A8FFF7DDFC019816E71A4A126812F4D2
:104CF000807F03D0B3F1805F00F0B681154A12685F
:104D000012F4003F00F0B281B3F1005F00F0B08117
:104D1000002001E70F4B1B6D03F4E043B3F5005F88
:104D20003CD01DD9B3F5405F00F0A481B3F5804FAE
:104D300027D1084AD36C03F04053126812F0040FD5
:104D400037D0002B35D1034B1B68C3F3C103034895
:104D5000D840E1E6004402580080BB000090D00338
:104D60008BB1B3F5805F0AD19D4B186810F00060DD
:104D70003FF4D2AE04A8FFF793FB0498CCE60020E2
:104D8000CAE60020C8E6964B186810F000703FF4A1
:104D9000C3AE07A8FFF784FD0898BDE6904B1868DE
:104DA00010F000503FF4B8AE01A8FFF779FC01986D
:104DB000B2E68B4A126812F4807F03D0B3F1805FB1
:104DC00000F05A81864A126812F4003F00F05681C2
:104DD000B3F1005F00F0548100209DE6804B1B6D15
:104DE00003F4E023B3F5403F32D00BD8B3F5803F56
:104DF00018D0B3F5003F20D013B9FEF7CDFC8BE6F9
:104E0000002089E6B3F5802F2ED0B3F5A02F07D16F
:104E1000734B186810F400303FF47EAE71487BE6A7
:104E2000002079E66E4B186810F000603FF474AE15
:104E300004A8FFF735FB05986EE6694B186810F07B
:104E400000503FF469AE01A8FFF72AFC029863E620
:104E5000634B186810F004003FF45EAE1B68C3F3A8
:104E6000C1036148D84057E65D4B186810F4807064
:104E70003FF452AE5D484FE6594B9B6D03F440330F
:104E8000B3F5803F10D0B3F5003F18D0002B40F0B1
:104E9000F980534B186810F000603FF43DAE04A851
:104EA000FFF7FEFA049837E64D4B186810F00050F3
:104EB0003FF432AE01A8FFF7F3FB03982CE6484A13
:104EC000D36C03F04053126812F0040F07D033B9CB
:104ED000434B1B68C3F3C1034348D8401CE6404A18
:104EE000126812F4807F03D0B3F1805F00F0CC80B1
:104EF0003B4A126812F4003F00F0C880B3F1005F33
:104F000000F0C680002007E6354BDB6C13F48033DD
:104F100002D063B90020FFE5314B186810F0007033
:104F20003FF4FAAD07A8FFF7BBFC0898F4E52C4B5B
:104F3000186810F000603FF4EFAD04A8FFF7B0FA76
:104F40000698E9E5264B9B6D03F0E043B3F1405F23
:104F500032D00BD8B3F1805F18D0B3F1005F20D00E
:104F600013B9FFF78BFAD7E50020D5E5B3F1804FF1
:104F70002ED0B3F1A04F07D1194B186810F40030B0
:104F80003FF4CAAD1748C7E50020C5E5144B1868C3
:104F900010F000603FF4C0AD04A8FFF781FA059857
:104FA000BAE50F4B186810F000503FF4B5AD01A8FA
:104FB000FFF776FB0298AFE5094B186810F0040084
:104FC0003FF4AAAD1B68C3F3C1030748D840A3E56B
:104FD000034B186810F480703FF49EAD03489BE5C6
:104FE0000044025840787D010090D00300093D0044
:104FF000294B1B6D03F04053B3F1805F0CD0B3F12C
:10500000005F14D0002B45D1234B186810F40030FA
:105010003FF482AD21487FE51F4B186810F0007007
:105020003FF47AAD07A8FFF73BFC089874E51A4BEC
:10503000186810F000603FF46FAD04A8FFF730FA75
:10504000059869E5002067E5154865E5002063E5FA
:10505000124861E513485FE511485DE500205BE516
:105060000E4859E50F4857E50D4855E5002053E532
:105070000A4851E50B484FE509484DE500204BE54E
:10508000064849E5002047E5054845E5002043E599
:10509000024841E500203FE50044025840787D0188
:1050A00000093D000080BB00F0B583B000236BE039
:1050B00085685E000324B44025EA0405CC68B4404A
:1050C0002C438460456825EA0C054C68C4F3001441
:1050D0009C402C43446069E0DD08083550F82540C9
:1050E00003F0070C4FEA8C0C4FF00F0E0EFA0CFE7B
:1050F00024EA0E0E0C6904FA0CF444EA0E0440F89B
:1051000025406BE0092400E0002404FA0EF42C434F
:105110000CF1020C664D45F82C404FF0B044256868
:10512000D44325EA02064F6817F4801F01D042EAF3
:1051300005064FF0B0452E606D6804EA05064F681D
:1051400017F4001F01D042EA05064FF0B0456E602B
:10515000D5F8845004EA05064F6817F4003F01D0E3
:1051600042EA05064FF0B045C5F88460D5F8805096
:105170002C404E6816F4803F01D042EA05044FF0FF
:10518000B042C2F8804001330A6832FA03F400F0FA
:105190008C804FF0010C0CFA03FC1CEA0202F2D0E6
:1051A0004C6804F00304013C012C81D94C6804F0E4
:1051B0000304032C0CD0C4685D004FF0030C0CFA00
:1051C00005FC24EA0C0C8C68AC4044EA0C04C46076
:1051D0004C6804F00304022C3FF47EAF04684FEAED
:1051E000430E4FF0030C0CFA0EFC24EA0C0C4C6836
:1051F00004F0030404FA0EF444EA0C0404604C685E
:1052000014F4403FBFD02B4CD4F8F45045F00205C5
:10521000C4F8F450D4F8F44004F002040194019C62
:105220004FEA930C0CF10205214C54F8255003F081
:10523000030E4FEA8E0E0F2404FA0EF425EA04053D
:105240001D4CA0423FF460AF04F58064A0421ED024
:1052500004F58064A0421CD004F58064A0421AD0FA
:1052600004F58064A04218D004F58064A04216D0F2
:1052700004F58064A04214D004F58064A04212D0EA
:1052800004F50064A0423FF43DAF0A243DE7012449
:105290003BE7022439E7032437E7042435E70524F4
:1052A00033E7062431E707242FE703B0F0BD00BF42
:1052B0000004005800440258000002580AB18161FD
:1052C000704709048161704703682749274A934260
:1052D00018BF8B422FD0183293422CD018329342F1
:1052E00029D01832934226D01832934223D0183254
:1052F000934220D0183293421DD002F55672934249
:1053000019D01832934216D01832934213D0183263
:10531000934210D0183293420DD0183293420AD0E3
:105320001832934207D01832934204D023F0FF037F
:105330008365806D704710B4D9B210390C4AA2FB56
:105340000142C2F302120B4CA25CC2655F2907D96D
:105350006FF3090304338365806D5DF8044B704778
:105360006FF309038365F7E710000240280002404D
:10537000ABAAAAAA30A9000883699BB9836A012B4A
:105380000AD0022B02D00BB100207047C36A13F081
:10539000807F2AD100207047C36AB3F1C07F26D036
:1053A00000207047B3F5005F0AD0836A022B26D92C
:1053B000032B26D1C36A13F0807F24D100207047CD
:1053C000836A032B03D8DFE803F01404140A0020D7
:1053D0007047C36A13F0807F0DD100207047C36A05
:1053E000B3F1C07F09D00020704701207047012031
:1053F000704701207047012070470120704701204D
:105400007047002070470120704700000368214961
:10541000214A934218BF8B4227D01432934224D0A2
:105420001432934221D0143293421ED0143293424C
:105430001BD01432934218D01432934215D0DAB2F2
:10544000103A1649A1FB0212120915491944A8295C
:105450001ED9144B13449B000366134B436602F0A2
:105460001F020123934083667047DBB2083B0F4A5B
:10547000A2FB03230E4A02EB1312920002660D4AAE
:105480004266C3F30413012202FA03F383667047F2
:105490000832DEE7085402581C540258ABAAAAAAE4
:1054A000F0FBFDBF0082001080080240CDCCCCCCC8
:1054B000009600168058025801794A1E072A2BD8F8
:1054C00030B40368154D164CA34218BFAB4218D038
:1054D0001434A34215D01434A34212D01434A3427E
:1054E0000FD01434A3420CD01434A34209D0143486
:1054F000A34206D00B4B0B449B00C3660A4B0367C9
:1055000005E00A4B0B449B00C366094B036701236C
:105510009340436730BC7047704700BF085402583F
:105520001C5402583F820010400902403F9600166A
:105530004059025870B5044601F050F9002C00F0B3
:10554000B781054623685349534A934218BF8B429B
:105550000CBF0121002150D0183293424DD0183297
:1055600093424AD01832934247D01832934244D0E3
:105570001832934241D0183293423ED002F556720F
:1055800093423AD01832934237D01832934234D0F3
:105590001832934231D0183293422ED018329342AF
:1055A0002BD01832934228D01832934225D03B4951
:1055B0003B4A934218BF8B4200F03281394A9342F2
:1055C00000F02E811432934200F02A81143293426B
:1055D00000F026811432934200F02281143293426B
:1055E00000F01E811432934200F01A81402363655B
:1055F000032384F8353001204AE0022284F8352064
:10560000002284F8342079BB274A93422CD01832E8
:10561000934229D01832934226D01832934223D095
:105620001832934220D0183293421DD002F55672A0
:10563000934219D01832934216D01832934213D0A5
:105640001832934210D0183293420DD01832934240
:105650000AD01832934207D01832934204D01A6805
:1056600022F001021A6003E01A6822F001021A60B7
:1056700023681A6812F0010F18D001F0AFF8431B2D
:10568000052BF5D920236365032384F835300120E9
:1056900070BD00BF100002402800024008540258AC
:1056A0001C54025830540258400002401A68814984
:1056B0001140A268E0680243206902436069024326
:1056C000A0690243E0690243206A02430A43616A17
:1056D000042900F090806168522900F296803F29E9
:1056E000C0F08E803F39744820FA01F111F0010FAB
:1056F00001D042F480121A602668756925F007050A
:10570000636A1D43042B08D1A36A1D43E36A23B1D6
:105710002046FFF731FE00287CD175612046FFF757
:10572000D3FDE36D03F01F023F23934083602368A2
:105730006249634A934218BF8B4242D01832934267
:105740003FD0183293423CD01832934239D01832AD
:10575000934236D01832934233D01832934230D02D
:1057600002F5567293422CD01832934229D0183247
:10577000934226D01832934223D01832934220D03D
:10578000183293421DD0183293421AD018329342E5
:1057900017D04C4A934214D01432934211D0143291
:1057A00093420ED0143293420BD01432934208D05D
:1057B0001432934205D01432934202D014329342F1
:1057C00013D12046FFF722FEA368802B63D0236EFF
:1057D00022791A60636EA26E5A606368013B072BE0
:1057E0005CD90023E36623676367002060650123BB
:1057F00084F835304CE7E16A206B01430A436AE7DD
:10580000293905293FF677AF73E7743903293FF645
:1058100072AF6EE740236365012084F8350037E7F7
:10582000022284F83520002284F8342019686FF3AE
:105830001011A268402A2CD0802A27D00022E068CC
:1058400042EAD002206942EAD002606942EAD0020C
:10585000A06942EAD002E06942EAD002206A42EA44
:1058600010120A431A602268174B1344174AA2FB0E
:1058700003231B099B00E3652046FFF725FDE26D2E
:1058800002F01F0101228A40426050E74FF480423B
:10589000D5E71022D3E70023636098E72046FFF79F
:1058A0000BFEE36E00221A60236F626F5A609CE762
:1058B0000120EDE63F8010FE0F030F0010000240B4
:1058C0002800024008540258F8ABFDA7CDCCCCCC40
:1058D00070B5044600F082FF002C00F08F81054671
:1058E00094F83530022B06D080236365002384F8BA
:1058F0003430012070BD23688B498C4A934218BF15
:105900008B4230D0183293422DD0183293422AD095
:105910001832934227D01832934224D0183293423F
:1059200021D0183293421ED002F5567293421AD0FB
:105930001832934217D01832934214D0183293423F
:1059400011D0183293420ED0183293420BD0183235
:10595000934208D01832934205D01A6822F00E0202
:105960001A60266809E01A6822F01E021A6022688E
:10597000536923F080035361266823686A496B4AA0
:10598000934218BF8B4242D0183293423FD0183214
:1059900093423CD01832934239D01832934236D0D9
:1059A0001832934233D01832934230D002F55672F7
:1059B00093422CD01832934229D01832934226D0E9
:1059C0001832934223D01832934220D01832934297
:1059D0001DD0183293421AD01832934217D0544A2D
:1059E000934214D01432934211D0143293420ED009
:1059F000143293420BD01432934208D014329342A3
:105A000005D01432934202D01432934204D1226E54
:105A1000136823F48073136023684349434A934215
:105A200018BF8B422FD0183293422CD01832934299
:105A300029D01832934226D01832934223D01832FC
:105A4000934220D0183293421DD002F556729342F1
:105A500019D01832934216D01832934213D018320C
:105A6000934210D0183293420DD0183293420AD08C
:105A70001832934207D01832934204D01A6822F0A9
:105A800001021A6003E01A6822F001021A6033680A
:105A900013F0010F0ED000F0A1FE431B052BF6D929
:105AA00020236365032384F83530002384F83430E1
:105AB00001201FE723681C491C4A934218BF8B42F0
:105AC00038D01832934235D01832934232D018323F
:105AD00093422FD0183293422CD01832934229D0BF
